{
  "contractName": "groupsContract",
  "abi": [
    {
      "constant": true,
      "inputs": [
        {
          "name": "",
          "type": "uint256"
        }
      ],
      "name": "unverifiedExpenses",
      "outputs": [
        {
          "name": "id",
          "type": "uint256"
        },
        {
          "name": "to",
          "type": "address"
        },
        {
          "name": "cost",
          "type": "uint256"
        },
        {
          "name": "totalSigns",
          "type": "uint256"
        },
        {
          "name": "expHash",
          "type": "string"
        }
      ],
      "payable": false,
      "stateMutability": "view",
      "type": "function"
    },
    {
      "constant": true,
      "inputs": [],
      "name": "totalExpenses",
      "outputs": [
        {
          "name": "",
          "type": "uint256"
        }
      ],
      "payable": false,
      "stateMutability": "view",
      "type": "function"
    },
    {
      "constant": true,
      "inputs": [
        {
          "name": "",
          "type": "uint256"
        }
      ],
      "name": "groups",
      "outputs": [
        {
          "name": "id",
          "type": "uint256"
        },
        {
          "name": "noOfMembers",
          "type": "uint256"
        },
        {
          "name": "disburseDate",
          "type": "uint256"
        },
        {
          "name": "fee",
          "type": "uint256"
        },
        {
          "name": "poolBalance",
          "type": "uint256"
        }
      ],
      "payable": false,
      "stateMutability": "view",
      "type": "function"
    },
    {
      "constant": true,
      "inputs": [
        {
          "name": "",
          "type": "address"
        },
        {
          "name": "",
          "type": "uint256"
        }
      ],
      "name": "belongsToOrNot",
      "outputs": [
        {
          "name": "",
          "type": "bool"
        }
      ],
      "payable": false,
      "stateMutability": "view",
      "type": "function"
    },
    {
      "constant": true,
      "inputs": [],
      "name": "totalGroups",
      "outputs": [
        {
          "name": "",
          "type": "uint256"
        }
      ],
      "payable": false,
      "stateMutability": "view",
      "type": "function"
    },
    {
      "constant": true,
      "inputs": [
        {
          "name": "",
          "type": "address"
        },
        {
          "name": "",
          "type": "uint256"
        }
      ],
      "name": "belongsTo",
      "outputs": [
        {
          "name": "",
          "type": "uint256"
        }
      ],
      "payable": false,
      "stateMutability": "view",
      "type": "function"
    },
    {
      "constant": true,
      "inputs": [
        {
          "name": "",
          "type": "address"
        },
        {
          "name": "",
          "type": "uint256"
        }
      ],
      "name": "toSignOrNot",
      "outputs": [
        {
          "name": "",
          "type": "bool"
        }
      ],
      "payable": false,
      "stateMutability": "view",
      "type": "function"
    },
    {
      "anonymous": false,
      "inputs": [
        {
          "indexed": false,
          "name": "name",
          "type": "string"
        },
        {
          "indexed": true,
          "name": "grpId",
          "type": "uint256"
        },
        {
          "indexed": false,
          "name": "venue",
          "type": "string"
        },
        {
          "indexed": false,
          "name": "date",
          "type": "uint256"
        },
        {
          "indexed": false,
          "name": "fee",
          "type": "uint256"
        },
        {
          "indexed": false,
          "name": "disburseDate",
          "type": "uint256"
        }
      ],
      "name": "CreateGroup",
      "type": "event"
    },
    {
      "anonymous": false,
      "inputs": [
        {
          "indexed": false,
          "name": "name",
          "type": "string"
        },
        {
          "indexed": true,
          "name": "expId",
          "type": "uint256"
        },
        {
          "indexed": true,
          "name": "grpId",
          "type": "uint256"
        },
        {
          "indexed": false,
          "name": "cost",
          "type": "uint256"
        },
        {
          "indexed": true,
          "name": "to",
          "type": "address"
        }
      ],
      "name": "AddExpense",
      "type": "event"
    },
    {
      "anonymous": false,
      "inputs": [
        {
          "indexed": true,
          "name": "verifier",
          "type": "address"
        },
        {
          "indexed": true,
          "name": "expId",
          "type": "uint256"
        },
        {
          "indexed": true,
          "name": "grpId",
          "type": "uint256"
        }
      ],
      "name": "VerifiedExp",
      "type": "event"
    },
    {
      "constant": true,
      "inputs": [
        {
          "name": "user",
          "type": "address"
        }
      ],
      "name": "getNoOfTotalGroupsOf",
      "outputs": [
        {
          "name": "",
          "type": "uint256"
        }
      ],
      "payable": false,
      "stateMutability": "view",
      "type": "function"
    },
    {
      "constant": false,
      "inputs": [
        {
          "name": "_disburseDate",
          "type": "uint256"
        },
        {
          "name": "_fee",
          "type": "uint256"
        },
        {
          "name": "_name",
          "type": "string"
        },
        {
          "name": "_venue",
          "type": "string"
        },
        {
          "name": "_date",
          "type": "uint256"
        }
      ],
      "name": "createGroup",
      "outputs": [
        {
          "name": "",
          "type": "uint256"
        }
      ],
      "payable": false,
      "stateMutability": "nonpayable",
      "type": "function"
    },
    {
      "constant": false,
      "inputs": [
        {
          "name": "_grpId",
          "type": "uint256"
        }
      ],
      "name": "joinGroup",
      "outputs": [],
      "payable": true,
      "stateMutability": "payable",
      "type": "function"
    },
    {
      "constant": false,
      "inputs": [
        {
          "name": "_name",
          "type": "string"
        },
        {
          "name": "_grpId",
          "type": "uint256"
        },
        {
          "name": "_to",
          "type": "address"
        },
        {
          "name": "_cost",
          "type": "uint256"
        },
        {
          "name": "_exphash",
          "type": "string"
        }
      ],
      "name": "addExpense",
      "outputs": [],
      "payable": false,
      "stateMutability": "nonpayable",
      "type": "function"
    },
    {
      "constant": false,
      "inputs": [
        {
          "name": "_expId",
          "type": "uint256"
        },
        {
          "name": "_grpId",
          "type": "uint256"
        }
      ],
      "name": "verifyExpense",
      "outputs": [],
      "payable": true,
      "stateMutability": "payable",
      "type": "function"
    },
    {
      "constant": false,
      "inputs": [
        {
          "name": "_grpId",
          "type": "uint256"
        }
      ],
      "name": "disburse",
      "outputs": [],
      "payable": true,
      "stateMutability": "payable",
      "type": "function"
    }
  ],
  "bytecode": "0x608060405260008055600060015534801561001957600080fd5b5061185a806100296000396000f3fe6080604052600436106100c25760003560e01c8063a012376e1161007f578063c75f289311610059578063c75f2893146106bb578063da0225db146106e6578063dc2b121514610755578063eed02e4b146107c8576100c2565b8063a012376e146105e2578063bd77ac2c1461061a578063c4ee2a1714610648576100c2565b806329e27dc7146100c75780634d6e83721461012c5780637b08b1b0146102bf5780637bd35af8146103bb5780638e778bea146103e657806396324bd414610577575b600080fd5b3480156100d357600080fd5b50610116600480360360208110156100ea57600080fd5b81019080803573ffffffffffffffffffffffffffffffffffffffff1690602001909291905050506107f6565b6040518082815260200191505060405180910390f35b34801561013857600080fd5b506102bd600480360360a081101561014f57600080fd5b810190808035906020019064010000000081111561016c57600080fd5b82018360208201111561017e57600080fd5b803590602001918460018302840111640100000000831117156101a057600080fd5b91908080601f016020809104026020016040519081016040528093929190818152602001838380828437600081840152601f19601f82011690508083019250505050505050919291929080359060200190929190803573ffffffffffffffffffffffffffffffffffffffff169060200190929190803590602001909291908035906020019064010000000081111561023757600080fd5b82018360208201111561024957600080fd5b8035906020019184600183028401116401000000008311171561026b57600080fd5b91908080601f016020809104026020016040519081016040528093929190818152602001838380828437600081840152601f19601f820116905080830192505050505050509192919290505050610842565b005b3480156102cb57600080fd5b506102f8600480360360208110156102e257600080fd5b8101908080359060200190929190505050610b5d565b604051808681526020018573ffffffffffffffffffffffffffffffffffffffff1673ffffffffffffffffffffffffffffffffffffffff16815260200184815260200183815260200180602001828103825283818151815260200191508051906020019080838360005b8381101561037c578082015181840152602081019050610361565b50505050905090810190601f1680156103a95780820380516001836020036101000a031916815260200191505b50965050505050505060405180910390f35b3480156103c757600080fd5b506103d0610c58565b6040518082815260200191505060405180910390f35b3480156103f257600080fd5b50610561600480360360a081101561040957600080fd5b8101908080359060200190929190803590602001909291908035906020019064010000000081111561043a57600080fd5b82018360208201111561044c57600080fd5b8035906020019184600183028401116401000000008311171561046e57600080fd5b91908080601f016020809104026020016040519081016040528093929190818152602001838380828437600081840152601f19601f820116905080830192505050505050509192919290803590602001906401000000008111156104d157600080fd5b8201836020820111156104e357600080fd5b8035906020019184600183028401116401000000008311171561050557600080fd5b91908080601f016020809104026020016040519081016040528093929190818152602001838380828437600081840152601f19601f82011690508083019250505050505050919291929080359060200190929190505050610c5e565b6040518082815260200191505060405180910390f35b34801561058357600080fd5b506105b06004803603602081101561059a57600080fd5b8101908080359060200190929190505050610e52565b604051808681526020018581526020018481526020018381526020018281526020019550505050505060405180910390f35b610618600480360360408110156105f857600080fd5b810190808035906020019092919080359060200190929190505050610e95565b005b6106466004803603602081101561063057600080fd5b8101908080359060200190929190505050611192565b005b34801561065457600080fd5b506106a16004803603604081101561066b57600080fd5b81019080803573ffffffffffffffffffffffffffffffffffffffff16906020019092919080359060200190929190505050611302565b604051808215151515815260200191505060405180910390f35b3480156106c757600080fd5b506106d0611331565b6040518082815260200191505060405180910390f35b3480156106f257600080fd5b5061073f6004803603604081101561070957600080fd5b81019080803573ffffffffffffffffffffffffffffffffffffffff16906020019092919080359060200190929190505050611337565b6040518082815260200191505060405180910390f35b34801561076157600080fd5b506107ae6004803603604081101561077857600080fd5b81019080803573ffffffffffffffffffffffffffffffffffffffff16906020019092919080359060200190929190505050611365565b604051808215151515815260200191505060405180910390f35b6107f4600480360360208110156107de57600080fd5b8101908080359060200190929190505050611394565b005b6000600560008373ffffffffffffffffffffffffffffffffffffffff1673ffffffffffffffffffffffffffffffffffffffff168152602001908152602001600020805490509050919050565b816002858154811061085057fe5b906000526020600020906006020160040154101561086d57600080fd5b6108756115f9565b6001548160000181815250508281604001818152505083816020019073ffffffffffffffffffffffffffffffffffffffff16908173ffffffffffffffffffffffffffffffffffffffff1681525050818160800181905250600081606001818152505060008090505b600286815481106108ea57fe5b9060005260206000209060060201600101548110156109ce576001600660006002898154811061091657fe5b9060005260206000209060060201600501848154811061093257fe5b9060005260206000200160009054906101000a900473ffffffffffffffffffffffffffffffffffffffff1673ffffffffffffffffffffffffffffffffffffffff1673ffffffffffffffffffffffffffffffffffffffff1681526020019081526020016000206000600154815260200190815260200160002060006101000a81548160ff02191690831515021790555080806001019150506108dd565b50600160008154809291906001019190505550600381908060018154018082558091505090600182039060005260206000209060050201600090919290919091506000820151816000015560208201518160010160006101000a81548173ffffffffffffffffffffffffffffffffffffffff021916908373ffffffffffffffffffffffffffffffffffffffff16021790555060408201518160020155606082015181600301556080820151816004019080519060200190610a9092919061163e565b505050508373ffffffffffffffffffffffffffffffffffffffff168582600001517f5cd35b6ecb5160e05f0066c40ee2950adc8bb2381e2254a55992c1865d7d051989876040518080602001838152602001828103825284818151815260200191508051906020019080838360005b83811015610b1a578082015181840152602081019050610aff565b50505050905090810190601f168015610b475780820380516001836020036101000a031916815260200191505b50935050505060405180910390a4505050505050565b60038181548110610b6a57fe5b90600052602060002090600502016000915090508060000154908060010160009054906101000a900473ffffffffffffffffffffffffffffffffffffffff1690806002015490806003015490806004018054600181600116156101000203166002900480601f016020809104026020016040519081016040528092919081815260200182805460018160011615610100020316600290048015610c4e5780601f10610c2357610100808354040283529160200191610c4e565b820191906000526020600020905b815481529060010190602001808311610c3157829003601f168201915b5050505050905085565b60015481565b6000610c686116be565b600054816000018181525050868160400181815250508581606001818152505060008160800181815250506000547fc20268d8f09e81a19cb9383a82fd16c22a03774e172f5e878ca203ad0a2f7c068686868a8c604051808060200180602001868152602001858152602001848152602001838103835288818151815260200191508051906020019080838360005b83811015610d12578082015181840152602081019050610cf7565b50505050905090810190601f168015610d3f5780820380516001836020036101000a031916815260200191505b50838103825287818151815260200191508051906020019080838360005b83811015610d78578082015181840152602081019050610d5d565b50505050905090810190601f168015610da55780820380516001836020036101000a031916815260200191505b5097505050505050505060405180910390a2600080815480929190600101919050555060028190806001815401808255809150509060018203906000526020600020906006020160009091929091909150600082015181600001556020820151816001015560408201518160020155606082015181600301556080820151816004015560a0820151816005019080519060200190610e449291906116f4565b505050505095945050505050565b60028181548110610e5f57fe5b90600052602060002090600602016000915090508060000154908060010154908060020154908060030154908060040154905085565b60028181548110610ea257fe5b90600052602060002090600602016001015460038381548110610ec157fe5b90600052602060002090600502016003015410610edd57600080fd5b600160028281548110610eec57fe5b9060005260206000209060060201600101540360038381548110610f0c57fe5b90600052602060002090600502016003015414156110b15760038281548110610f3157fe5b90600052602060002090600502016003016000815480929190600101919050555060038281548110610f5f57fe5b906000526020600020906005020160010160009054906101000a900473ffffffffffffffffffffffffffffffffffffffff1673ffffffffffffffffffffffffffffffffffffffff166108fc60038481548110610fb757fe5b9060005260206000209060050201600201549081150290604051600060405180830381858888f19350505050158015610ff4573d6000803e3d6000fd5b506003828154811061100257fe5b9060005260206000209060050201600201546002828154811061102157fe5b9060005260206000209060060201600401600082825403925050819055506003828154811061104c57fe5b90600052602060002090600502016000808201600090556001820160006101000a81549073ffffffffffffffffffffffffffffffffffffffff0219169055600282016000905560038201600090556004820160006110aa919061177e565b50506110e0565b600382815481106110be57fe5b9060005260206000209060050201600301600081548092919060010191905055505b6000600660003373ffffffffffffffffffffffffffffffffffffffff1673ffffffffffffffffffffffffffffffffffffffff168152602001908152602001600020600084815260200190815260200160002060006101000a81548160ff02191690831515021790555080823373ffffffffffffffffffffffffffffffffffffffff167fea154f89437fd0526c4bc1a61ccc7bd5fb9d92d5ee288bb3855d60000ca80c7560405160405180910390a45050565b6002818154811061119f57fe5b90600052602060002090600602016002015442116111bc57600080fd5b6000600282815481106111cb57fe5b906000526020600020906006020160010154600283815481106111ea57fe5b9060005260206000209060060201600401548161120357fe5b04905060008090505b6002838154811061121957fe5b9060005260206000209060060201600101548110156112d9576002838154811061123f57fe5b9060005260206000209060060201600501818154811061125b57fe5b9060005260206000200160009054906101000a900473ffffffffffffffffffffffffffffffffffffffff1673ffffffffffffffffffffffffffffffffffffffff166108fc839081150290604051600060405180830381858888f193505050501580156112cb573d6000803e3d6000fd5b50808060010191505061120c565b506000600283815481106112e957fe5b9060005260206000209060060201600401819055505050565b60046020528160005260406000206020528060005260406000206000915091509054906101000a900460ff1681565b60005481565b6005602052816000526040600020818154811061135057fe5b90600052602060002001600091509150505481565b60066020528160005260406000206020528060005260406000206000915091509054906101000a900460ff1681565b80600054101580156113a7575080600011155b6113b057600080fd5b600281815481106113bd57fe5b90600052602060002090600602016003015434146113da57600080fd5b60001515600460003373ffffffffffffffffffffffffffffffffffffffff1673ffffffffffffffffffffffffffffffffffffffff168152602001908152602001600020600083815260200190815260200160002060009054906101000a900460ff1615151461144857600080fd5b6002818154811061145557fe5b90600052602060002090600602016005013390806001815401808255809150509060018203906000526020600020016000909192909190916101000a81548173ffffffffffffffffffffffffffffffffffffffff021916908373ffffffffffffffffffffffffffffffffffffffff16021790555050600281815481106114d757fe5b906000526020600020906006020160010160008154809291906001019190505550346002828154811061150657fe5b9060005260206000209060060201600401600082825401925050819055506001600460003373ffffffffffffffffffffffffffffffffffffffff1673ffffffffffffffffffffffffffffffffffffffff168152602001908152602001600020600083815260200190815260200160002060006101000a81548160ff021916908315150217905550600560003373ffffffffffffffffffffffffffffffffffffffff1673ffffffffffffffffffffffffffffffffffffffff16815260200190815260200160002081908060018154018082558091505090600182039060005260206000200160009091929091909150555050565b6040518060a0016040528060008152602001600073ffffffffffffffffffffffffffffffffffffffff1681526020016000815260200160008152602001606081525090565b828054600181600116156101000203166002900490600052602060002090601f016020900481019282601f1061167f57805160ff19168380011785556116ad565b828001600101855582156116ad579182015b828111156116ac578251825591602001919060010190611691565b5b5090506116ba91906117c6565b5090565b6040518060c001604052806000815260200160008152602001600081526020016000815260200160008152602001606081525090565b82805482825590600052602060002090810192821561176d579160200282015b8281111561176c5782518260006101000a81548173ffffffffffffffffffffffffffffffffffffffff021916908373ffffffffffffffffffffffffffffffffffffffff16021790555091602001919060010190611714565b5b50905061177a91906117eb565b5090565b50805460018160011615610100020316600290046000825580601f106117a457506117c3565b601f0160209004906000526020600020908101906117c291906117c6565b5b50565b6117e891905b808211156117e45760008160009055506001016117cc565b5090565b90565b61182b91905b8082111561182757600081816101000a81549073ffffffffffffffffffffffffffffffffffffffff0219169055506001016117f1565b5090565b9056fea165627a7a7230582054b78869540fc15cf61ffc8ce0759f311167bec6abd48781e4c3b7f4623e27ed0029",
  "source": "pragma solidity ^0.5.0;\n\ncontract groupsContract {\n\n  uint public totalGroups = 0;\n  uint public totalExpenses = 0;\n\n  struct Group{\n    uint id;\n    uint noOfMembers;\n    uint disburseDate;\n    uint fee;\n    uint poolBalance;\n    address payable[] members;\n  }\n\n  struct UnverifiedExpense{\n    uint id;\n    address payable to;\n    uint cost;\n  //  address[] verifiedBy;\n    uint totalSigns;\n    string expHash;\n  }\n\n  Group[] public groups;\n  UnverifiedExpense[] public unverifiedExpenses;\n\n  mapping(address => mapping(uint  => bool)) public belongsToOrNot;\n  mapping(address => uint[]) public belongsTo;\n  mapping(address => mapping(uint => bool)) public toSignOrNot;\n\n  event CreateGroup(string name, uint indexed grpId, string venue,uint date, uint fee, uint disburseDate);\n  event AddExpense(string name, uint indexed expId, uint indexed grpId, uint cost, address indexed to);\n  event VerifiedExp(address indexed verifier, uint indexed expId, uint indexed grpId);\n\n  function getNoOfTotalGroupsOf(address user) view public returns(uint){\n    return belongsTo[user].length;\n  }\n\n  function createGroup( uint _disburseDate, uint _fee, string memory _name, string memory _venue, uint _date) public returns(uint){\n    Group memory newGroup;\n\n    newGroup.id = totalGroups;\n    newGroup.disburseDate = _disburseDate;\n    newGroup.fee = _fee;\n    newGroup.poolBalance = 0;\n\n    emit CreateGroup(_name,totalGroups,_venue,_date,_fee,_disburseDate);\n\n    totalGroups++;\n    groups.push(newGroup);\n  }\n\n  function joinGroup(uint _grpId) public payable {\n    require(totalGroups >= _grpId && 0 <= _grpId);\n    require(msg.value == groups[_grpId].fee);\n    require(belongsToOrNot[msg.sender][_grpId]==false);\n\n    groups[_grpId].members.push(msg.sender);\n    groups[_grpId].noOfMembers++;\n    groups[_grpId].poolBalance += msg.value;\n    belongsToOrNot[msg.sender][_grpId] = true;\n    belongsTo[msg.sender].push(_grpId);\n\n  }\n\n  function addExpense(string memory _name, uint _grpId, address payable _to, uint _cost, string memory _exphash) public {\n      require(groups[_grpId].poolBalance >= _cost);\n\n      UnverifiedExpense memory newUnverifiedExp;\n\n      newUnverifiedExp.id = totalExpenses;\n      newUnverifiedExp.cost = _cost;\n      newUnverifiedExp.to = _to;\n      newUnverifiedExp.expHash = _exphash;\n      newUnverifiedExp.totalSigns = 0;\n\n\n      for(uint i=0; i<groups[_grpId].noOfMembers ;i++){\n          toSignOrNot[groups[_grpId].members[i]][totalExpenses] = true;\n      }\n\n      totalExpenses++;\n\n      unverifiedExpenses.push(newUnverifiedExp);\n\n      emit AddExpense(_name, newUnverifiedExp.id, _grpId, _cost, _to);\n  }\n\n  function verifyExpense(uint _expId, uint _grpId) public payable{\n      if(unverifiedExpenses[_expId].totalSigns >= groups[_grpId].noOfMembers){\n          revert();\n      }\n      else if(unverifiedExpenses[_expId].totalSigns == groups[_grpId].noOfMembers-1){\n\n          unverifiedExpenses[_expId].totalSigns++;\n\n          unverifiedExpenses[_expId].to.transfer(unverifiedExpenses[_expId].cost);\n\n          groups[_grpId].poolBalance -= unverifiedExpenses[_expId].cost;\n\n\n          delete unverifiedExpenses[_expId];\n\n      }\n      else{\n          unverifiedExpenses[_expId].totalSigns++;\n      }\n\n      toSignOrNot[msg.sender][_expId] = false;\n\n\n      emit VerifiedExp(msg.sender, _expId, _grpId);\n  }\n\n   function disburse(uint _grpId) public payable{\n       require(now > groups[_grpId].disburseDate );\n       uint dividedBal = groups[_grpId].poolBalance/groups[_grpId].noOfMembers;\n       for(uint i=0;i<groups[_grpId].noOfMembers;i++){\n           groups[_grpId].members[i].transfer(dividedBal);\n       }\n       groups[_grpId].poolBalance = 0;\n\n   }\n\n}\n",
  "sourcePath": "/home/pudio/Documents/atomprojects/split-party/contracts/groupsContract.sol",
  "compiler": {
    "name": "solc",
    "version": "0.5.8+commit.23d335f2.Emscripten.clang"
  },
  "schemaVersion": "3.0.11",
  "updatedAt": "2019-07-21T10:54:55.704Z",
  "devdoc": {
    "methods": {}
  },
  "userdoc": {
    "methods": {}
  }
}